:100000000C9457000C9474000C9474000C947400BD
:100010000C9474000C9474000C9474000C94740090
:100020000C9474000C9474000C9474000C94740080
:100030000C9474000C9474000C9474000C94740070
:100040000C9446010C9474000C9474000C9474008D
:100050000C9474000C9474000C9474000C94740050
:100060000C9474000C94740000000008000201005D
:100070000003040700000000000000000102040863
:100080001020408001020408102001020408102002
:10009000040404040404040402020202020203032E
:1000A0000303030300000000250028002B00112497
:1000B0001FBECFEFD8E0DEBFCDBF11E0A0E0B1E0C2
:1000C000EAE9F3E002C005900D92A230B107D9F73A
:1000D00021E0A2E0B1E001C01D92AF30B207E1F72C
:1000E0000E9437010C94CB010C9400000895CF932B
:1000F000DF938EE00E94BA00EC018FE00E94BA000C
:10010000C93E23E0D20718F021E030E005C0C03935
:10011000D14038F422E030E0309303012093020113
:1001200004C01092030110920201893E23E092075D
:1001300018F081E090E005C08039914038F482E009
:1001400090E0909305018093040104C01092050192
:1001500010920401DF91CF9108950E94770061E031
:100160008091040190910501019709F060E088E019
:100170000C9400018E3008F08E50877020910001A1
:1001800090E4299F90011124822B80937C00809120
:100190007A00806480937A0080917A0086FDFCCF9B
:1001A000809178002091790090E0922B089583301F
:1001B00081F028F4813099F08230A1F008958730E1
:1001C000A9F08830B9F08430D1F4809180008F7D1F
:1001D00003C0809180008F7780938000089584B55C
:1001E0008F7702C084B58F7D84BD08958091B00063
:1001F0008F7703C08091B0008F7D8093B000089509
:100200000F931F93CF93DF931F92CDB7DEB7282FA5
:1002100030E0F901E859FF4F8491F901E458FF4FAC
:100220001491F901E057FF4F04910023C9F088238E
:1002300021F069830E94D7006981E02FF0E0EE0F82
:10024000FF1FEC55FF4FA591B4919FB7F8948C9187
:10025000611103C01095812301C0812B8C939FBF36
:100260000F90DF91CF911F910F91089508950E94F3
:1002700090010E9436010E947600C0E0D0E00E940A
:10028000AD002097E1F30E940000F9CF1F920F927A
:100290000FB60F9211242F933F938F939F93AF9399
:1002A000BF938091070190910801A0910901B0913D
:1002B0000A013091060123E0230F2D3720F4019627
:1002C000A11DB11D05C026E8230F0296A11DB11D79
:1002D000209306018093070190930801A0930901E0
:1002E000B0930A0180910B0190910C01A0910D0136
:1002F000B0910E010196A11DB11D80930B01909349
:100300000C01A0930D01B0930E01BF91AF919F918D
:100310008F913F912F910F900FBE0F901F901895C6
:10032000789484B5826084BD84B5816084BD85B5D0
:10033000826085BD85B5816085BDEEE6F0E0808197
:1003400081608083E1E8F0E01082808182608083B8
:10035000808181608083E0E8F0E08081816080833B
:10036000E1EBF0E0808184608083E0EBF0E080816D
:1003700081608083EAE7F0E080818460808380810F
:1003800082608083808181608083808180688083B7
:0A0390001092C1000895F894FFCF09
:02039A00010060
:00000001FF
